:020000040800F2
:10000000680B00209D0100080D190008E11600088A
:1000100000000000000000000000000000000000E0
:10002000000000000000000000000000111900089E
:1000300000000000000000000F190008131900085C
:10004000AF010008AF010008AF010008AF010008D0
:10005000AF010008AF010008AF010008AF010008C0
:10006000AF010008AF010008AF010008AF010008B0
:10007000AF010008AF01000800000000AF01000858
:1000800000000000AF0100080000000000000000B8
:10009000AF01000800000000AF010008AF01000838
:1000A000AF010008AF010008AF010008AF01000870
:1000B000AF010008AF010008AF010008AF01000860
:1000C00000F002F800F03EF80CA030C80838241800
:1000D0002D18A246671EAB4654465D46AC4201D180
:1000E00000F030F87E460F3E0FCCB6460126334274
:1000F00000D0FB1AA246AB4633431847CC1E000083
:10010000EC1E0000103A02D378C878C1FAD8520722
:1001100001D330C830C101D504680C6070470000BD
:100120000023002400250026103A01D378C1FBD813
:10013000520700D330C100D50B6070471FB51FBDFB
:1001400010B510BD00F097F91146FFF7F7FF01F069
:10015000CFFE00F0AFF903B4FFF7F2FF03BC00F0ED
:10016000B5F9000070B505460C46164602E00FCC06
:100170000FC5103E102EFAD2082E02D303CC03C5B1
:10018000083E042E07D301CC01C5361F03E02178B9
:100190002970641C6D1C761EF9D270BD074880471B
:1001A00007480047FEE7FEE7FEE7FEE7FEE7FEE75B
:1001B00004480549054A064B70470000B519000878
:1001C000C100000868050020680B002068070020B7
:1001D00068070020FEB5054610460C46184373D04C
:1001E000AE468C460020AD1A01469C4167D3664658
:1001F000002701243D46B61A9D4102D313463A46D4
:100200002124654676462F04360C3E432D0CB61A43
:100210009D4104D3150C1B042B4312041034654676
:1002200076462F06360A3E432D0AB61A9D4104D360
:10023000150E1B022B4312020834654676462F0723
:1002400036093E432D09B61A9D4104D3150F1B01F3
:100250002B431201241D65467646AF07B6083E4380
:10026000AD08B61A9D4104D3950F9B002B43920015
:10027000A41C65467646EF0776083E436D08B61A1D
:100280009D411AD392185B41641C16E00018764613
:1002900065464941B71A9D410191009009D36046D6
:1002A000B11A98418E468446009801990025401C59
:1002B0006941DD0752082A435B08641EE6D5724691
:1002C000634603B0F0BDFFE700200146C046C046CC
:1002D0002A462346F5E701E004C0091F0429FBD2A2
:1002E0008B0701D50280801CC90700D002707047BF
:1002F00000290BD0C30702D00270401C491E0229FE
:1003000004D3830702D50280801C891EE3E7002204
:10031000EEE70022DFE7002203098B422CD3030A19
:100320008B4211D300239C464EE003460B433CD442
:10033000002243088B4231D303098B421CD3030AAA
:100340008B4201D394463FE0C3098B4201D3CB01DA
:10035000C01A524183098B4201D38B01C01A52410A
:1003600043098B4201D34B01C01A524103098B420E
:1003700001D30B01C01A5241C3088B4201D3CB00F9
:10038000C01A524183088B4201D38B00C01A5241DC
:1003900043088B4201D34B00C01A5241411A00D28C
:1003A00001465241104670475DE0CA0F00D04942F5
:1003B000031000D34042534000229C4603098B4265
:1003C0002DD3030A8B4212D3FC22890112BA030AED
:1003D0008B420CD3890192118B4208D3890192116F
:1003E0008B4204D389013AD0921100E08909C309F4
:1003F0008B4201D3CB01C01A524183098B4201D3F6
:100400008B01C01A524143098B4201D34B01C01AE0
:10041000524103098B4201D30B01C01A5241C30858
:100420008B4201D3CB00C01A524183088B4201D3C7
:100430008B00C01A5241D9D243088B4201D34B00E2
:10044000C01A5241411A00D20146634652415B1024
:10045000104601D34042002B00D549427047634605
:100460005B1000D3404201B50020C046C04602BD2B
:10047000704770477047754600F024F8AE46050097
:1004800069465346C008C000854618B020B5FFF73E
:100490008FFE60BC00274908B6460026C0C5C0C50F
:1004A000C0C5C0C5C0C5C0C5C0C5C0C5403D490068
:1004B0008D46704710B50446C046C0462046FFF73B
:1004C0004AFE10BD00487047080500200149182069
:1004D000ABBEFEE7260002007047000070B5044680
:1004E00000F0ECF80546601C02D00448007824189F
:1004F00000F0E4F8401BA042FAD370BD00000020D9
:10050000F8B5002303240125BDE032462E469E4067
:10051000B446324079D00E79B607B60F012E01D01D
:10052000022E17D186682746B6465E00B740009671
:100530007646BE43B646CF68009EB7407646374300
:10054000876046686746BE430F79FF06FF0F9F40EE
:10055000374347600E79F643B6070ED0C668274684
:10056000B4465E00B646B7406646BE43B4468F68A2
:100570007646B74066463743C7600E79B607B60F72
:10058000022E14D1DE08B60036180096366A5F07D0
:10059000B446FE0E0F27B646B7406646BE43B44685
:1005A0000F697646B74066463743009E3762066855
:1005B0002746B4465E00B646B7406646BE430F794E
:1005C000B446BF07BF0F7646B7406646374307605D
:1005D0004E68B603B60F55D02E4F7E6B2E437E630A
:1005E0009F082D4EBF00BE190096B6680F27B4466F
:1005F0009E07360FB646B7406646BE4305273F07FF
:10060000B446B84202D1002715E03BE0234FB84280
:1006100001D101270FE0224FB84201D102270AE0A1
:10062000204FB84201D1032705E01F4FB84201D146
:10063000052700E006277646B74066463743009E0A
:10064000B7601A4E36684F689643FF0300D51643CD
:10065000164F3E607E684F689643BF0300D5164331
:10066000124F7E60BE684F689643FF0200D5164366
:100670000E4FBE60FE684F689643BF0200D516431A
:100680000A4AD6605B1C0A681646DA4000D03CE78E
:10069000F8BD0000001002400000014000040050BE
:1006A00000080050000C0050001C005000040140E5
:1006B000002A01D0816170478162704701488068DB
:1006C000704700000000002070B5024640325378A9
:1006D000202B1CD11378012B19D001231370242453
:1006E0005470046825689D432560046825681E03CE
:1006F000B5432560046825680D43256000680168DE
:1007000019430160202050700020107070BD02203D
:1007100070BD70B5024640325378202B1BD1137840
:10072000012B18D0012414702423537003681D6812
:10073000A5431D6005682B680F263602B3430902E6
:10074000194329600068016821430160202050702E
:100750000020107070BD022070BD000070B5040054
:1007600006D02546403568780026002802D005E0EE
:10077000012070BD2E70204600F04AF824206870D9
:10078000206801684908490001600F216068090676
:1007900088432168086121688A680120C003824378
:1007A0008A60E1680129A16808D0212292021143E0
:1007B00022689160E168022902D005E00143F7E771
:1007C00001212268C902516021684A680F4B1A430F
:1007D0004A602168CA688243CA6061692069084327
:1007E000A169090208432168C860216AE0690843D9
:1007F0002168086020680168012211430160666475
:10080000202068702663AE70002070BD008000025A
:1008100010B586B0044614216846FFF77AFD1149E9
:10082000206888421BD1104CE16A02200143E1623A
:10083000E16A01400320059100020090122001901E
:100840000120029003200390042004906946074889
:10085000FFF756FEA06B012149050843A06306B0CF
:1008600010BD000000540040001002400004005081
:100870000248816802788918816070470000002072
:1008800010B5084800240168402211430160204649
:1008900000F00AF8002801D0012401E000F026F859
:1008A000204610BD0020024070B504460D4D7D204D
:1008B0002978C000FFF72FFD01460B480068FFF7BD
:1008C0002AFD00F08DFD002809D1042C07D200225A
:1008D0002146401E00F016F800206C6070BD01201B
:1008E00070BD0000000000200C0000200448416B97
:1008F000012211434163816B0204114381637047FC
:100900000010024010B501F0D1FA10BD10B505235A
:10091000DB01C3180168012217249A6664010023D1
:10092000001903704031888A10438882888A022225
:1009300010438882184610BDF0B585B0040007D07A
:10094000152040012618707A0025002803D006E003
:10095000012005B0F0BD3572204600F045F80320B7
:100960007072206801F072FA002001270DE0282142
:10097000414309190A46203257721072C886D5724F
:100980008D63CD63401CC0B20D6461688142EED8B6
:10099000002210E02820504300190146FF31613148
:1009A0004D720A72CD726039FF3081308D67CD672C
:1009B000521CD2B2056060689042EBD821461422E6
:1009C00010316846FFF7CEFB0FCC103C01F034FA33
:1009D000242005557772E069012802D12046FFF7EF
:1009E00095FF0020B5E7000000680549884205D161
:1009F0000448816B0122D2051143816370470000D6
:100A0000005C004000100240F8B504460068002772
:100A1000604D810601D400057ED55E4E403EB06B30
:100A2000C00004D4B06B31040843B06301275A48B6
:100A30000168C90511D40168821511430160FFF7EF
:100A40003DFE009005E0FFF739FE0099401A64284A
:100A500044D851480068C005F5D531680320000529
:100A6000626801401040884205D10323A0681B053D
:100A70001840884208D09003800F032804D13068C2
:100A8000800301D50120F8BD28690321090408402D
:100A900029D00A40824202D02278920606D4A26867
:100AA0000A4082421FD0208800051CD528692A6987
:100AB00088430121C9040A432A612A698A432A61B9
:100AC0002861C0050FD5FFF7F9FD009008E0FFF79A
:100AD000F5FD0099411A3148814201D90320F8BD42
:100AE00028698005F3D561688803800F032805D144
:100AF00032680005824301400A43326028690322BC
:100B000061681204114008432861002F06D0B16BC0
:100B100001200007814300E000E0B1632078C007B6
:100B200005D0E868E168800880000843E860207824
:100B3000800705D5E8680C21884321690843E860EF
:100B40002078400706D5E868032189028843616957
:100B50000843E8602078000706D5E8680321090308
:100B60008843A1690843E8602078400606D5E86814
:100B7000012189068843216A0843E860207800063D
:100B800006D5E868032189048843E1690843E860E1
:100B90000020F8BD401002400070004088130000A3
:100BA000F8B50E46050038D05E480068C007C00F93
:100BB000B04214D25B4C20684008400030432060B3
:100BC000FFF77CFD074605E0FFF778FDC11B56489F
:100BD00081427AD82068C007C00FB042F4D128788B
:100BE000524C800705D5E068F0218843A968084386
:100BF000E0602878C00752D06868022806D0032831
:100C000007D0216801280AD0890504E021688903FA
:100C100001E021688901002903DB0120F8BD4907B3
:100C2000F9E7E168890889000143E160FFF746FDC3
:100C30000746686802280AD0032814D001281ED06D
:100C400029E0FFF73BFDC11B374881423DD8E068F2
:100C50000007800F0228F4D121E0FFF72FFDC11B10
:100C60003148814231D8E0680007800F0328F4D171
:100C700015E0FFF723FDC11B2B48814225D8E06812
:100C80000007800F0128F4D109E0FFF717FDC11B11
:100C90002548814219D8E0680007800FF5D1214826
:100CA0000168C907C90FB14217D90168490849004D
:100CB00031430160FFF702FD074608E005E0FFF75A
:100CC000FDFCC11B1848814201D90320F8BD15481D
:100CD0000068C007C00FB042F1D12878400706D5A0
:100CE000E068072109028843E9680843E060287842
:100CF000000707D5E0680721C90288432969C900B0
:100D00000843E06000F03AF8E168094A0906090F73
:100D1000515CC8400749086007480068FFF7C4FDF8
:100D2000F8BD0000002002408813000000100240BF
:100D3000A41F00080C0000200400002004480549FE
:100D40000068C968044A4905490F515CC8407047AA
:100D50000C00002000100240BD1F00080448054997
:100D60000068C968044A8904490F515CC84070474B
:100D70000C00002000100240BD1F000870B51A4A88
:100D8000D3681A490C2018408D0004280CD04E005E
:100D9000082810D00C2810D050680004410F012002
:100DA000C003491C884070BD1068C00601D50846C4
:100DB00070BD284670BD304670BD98020C4C000FC7
:100DC000205C1B029C0FD368641CDB0301D53146F9
:100DD00003E01268D20600D4294601F041F8224609
:100DE0000023FFF7F7F970BD0010024000093D0035
:100DF000B41F0008FEB505007ED0FE4CE7680C204D
:100E0000E66807400120000406402878C00747D064
:100E1000082F05D00C2F0AD101200004864206D1EC
:100E2000206880033CD568680028E5D038E00120C0
:100E300069680004814203D121680143216011E007
:100E4000052301221B0492049942216802D1114317
:100E50002160F1E781432160216801400091206811
:100E600090432060686800280DD0FFF727FC0090B1
:100E700005E0FFF723FC0099401A64287BD820681E
:100E80008003F6D50CE0FFF719FC009005E0FFF7B2
:100E900015FC0099401A6428F0D820688003F6D425
:100EA0002878800756D50923E868042F0DD00C2F29
:100EB00001D1002E09D000283CD02168994301437C
:100EC0002160FFF7FBFB064628E02168490701D5B2
:100ED000002891D061681F22120291432A691202F0
:100EE000114361602168994301432160FFF746FF88
:100EF000E16809060A0F00E0BFE1BF49895CC8400C
:100F0000BE490860BE480068FFF7CEFC002873D1D8
:100F100020E0FFF7D3FB801B0228AFD820684007F2
:100F2000F7D560681F21090288432969090208432F
:100F300060600FE02068400840002060FFF7BEFBC3
:100F4000064604E0FFF7BAFB801B022896D820680B
:100F50004007F7D42878C00660D5002F0CD0E86988
:100F600000284AD02068FF21013108432060FFF7A4
:100F7000A5FB06462EE0E5E02068800502D5E8697D
:100F80000028A6D06068072149038843696A08439E
:100F900060606068298C0002000A090608436060EE
:100FA000686A410B0120C003491C8840E1680906BA
:100FB0000A0F9149895CC8409049086090480068D0
:100FC000FFF772FC002817D128E0FFF777FB801BA2
:100FD0000228A2D820688005F7D560680721490358
:100FE0008843696A084360606068298C0002000ACF
:100FF00009060843606011E025E12168FF20013007
:1010000081432160FFF75AFB064604E0FFF756FBD9
:10101000801B02289AD820688005F7D42878794E5A
:10102000000724D568690028306910D001210843E1
:101030003061FFF743FB009005E0FFF73FFB0099AD
:10104000401A02287ED830698007F6D50FE04008A4
:1010500040003061FFF732FB009005E0FFF72EFB08
:101060000099401A02286DD830698007F6D4287894
:10107000400764D500200290A06BC00006D4A06B8E
:10108000012109070843A063012002905E4801681E
:10109000C90511D40168821511430160FFF70EFBE9
:1010A000009005E0FFF70AFB0099401A642849D830
:1010B00055480068C005F5D5FF20AA680130824276
:1010C00003D131690143316111E001218902002A14
:1010D00007D005231B029A4203D132690A433261C9
:1010E000EFE7326982433261306988433061A86832
:1010F00000280ED0FFF7E2FA009006E0FFF7DEFAD4
:101100000099411A414881421CD830698005F5D5C3
:101110000DE0FFF7D3FA009006E0FFF7CFFA009951
:10112000411A3A4881420DD830698005F5D40298B9
:10113000002804D0A16B012000078143A163287817
:10114000800600E07EE02ED53148A96943140029CD
:1011500016D0A26801210A43A260626B0A4362634F
:10116000016A19430162FFF7A9FA064604E0FFF796
:10117000A5FA801B022865D8A0688007F7D512E081
:10118000A16849084900A160016A99430162FFF71B
:1011900095FA064604E0FFF791FA801B022851D821
:1011A000A0688007F7D4A86A002868D00C2F4FD019
:1011B000012636060228206805D0B0432060FFF7DC
:1011C0007DFA054640E0B0432060FFF777FA074616
:1011D00004E0FFF773FAC01B022833D820688001AF
:1011E000F7D4296BE86AE2680843696BFD231B04A6
:1011F0009A430FE000100240A41F00080C000020DA
:1012000004000020401002400070004088130000DD
:101210000000014011430843E06020683043206033
:10122000FFF74CFA054604E0FFF748FA401B022896
:1012300008D820688001F7D521E0FFF73FFA401B6E
:10124000022801D90320FEBD20688001F5D416E0F4
:101250000128F8D0E06801210904EA6A01409142BE
:101260000BD10F2189042A6B0140914205D1032142
:1012700089050840696B884201D00120FEBD00202D
:10128000FEBDF8B504000ED0FF27606A05370025C3
:1012900000280AD02561656126464036A562707C2B
:1012A000002807D00AE00120F8BD6068B842F3D0FA
:1012B000E561F1E73574204600F03EF802217174D3
:1012C0002068026840239A4302602123A268606874
:1012D0009B021A4038401043E3688A0213401843C7
:1012E00023690B40217D1843C907C90F0843A16931
:1012F000931019400843E169382319400843216AD3
:10130000802319400843A16A9300194008432168CB
:101310000860A0690421000C0840616A102319408C
:101320000843216848602068C1699143C1616565CF
:10133000012070740020F8BD70B586B004461421F9
:101340006846FEF7E6FF224A20680024214902256C
:10135000214E904221D1486B8A1410434863C86AD9
:1013600001221043C862C86A10400590C86A284329
:10137000C862C86A029428400590D00300900520F6
:1013800003946946019504940007FFF7B9F82820F3
:10139000029401950394009013E0104A904215D1F5
:1013A000886B121410438863C86A2843C862C86AED
:1013B0000195284005900F2000030090032002941F
:1013C0000390694630460494FFF79AF806B070BD62
:1013D000003001400010024000040050003800407E
:1013E000094910B5401E884201D9012010BD074CA3
:1013F00060610321081F00F059FD0020A061072053
:101400002061002010BD0000FFFFFF0000E000E0B1
:10141000F0B502462032137E012B1ED00125157631
:101420000223537606687468B3687027BC430F685C
:10143000274377600068AC07A04205D0084CA04263
:1014400002D0084CA04204D180244968A343194328
:101450008160557600201076F0BD0220F0BD0000BE
:10146000000801400014014070B5050005D02C466D
:101470002034607E002802D006E0012070BD0020EC
:101480002076284600F010F802206076291D286892
:1014900000F092FA0120A077A076E07620776077BE
:1014A0006076002070BD000000680449884204D1C5
:1014B0000348816B10221143816370470010004084
:1014C0000010024070B5040005D025462035287F65
:1014D000002802D006E0012070BD00206877204679
:1014E00000F042F802202877206801260660A168F3
:1014F0006068228A08436169520411430843A16964
:101500000843E1690843616A0843A16A0843216806
:101510000A6810430860207B012804D12068016814
:10152000320411430160616B206B0843A16B0843D7
:101530002168C0430861616B206B084321688862A1
:101540002168A06B0862206B00F062FA21680863D2
:10155000206841688908890041602168032088600B
:101560002E77002070BD0000F0B587B0044614212E
:101570006846FEF7CEFE25492068884243D12448BC
:10158000026B012109040A430263026B0A400592BF
:10159000C16A01263143C162C16A31400591C16A05
:1015A00002252943C162C06A0024284005904420D6
:1015B000009003270520029469460497019503943F
:1015C0000007FEF79DFF8820009012200190052063
:1015D00002946946049703940007FEF791FF009672
:1015E0000C4E029469460497019503943046FEF729
:1015F00087FF122001900294694604970095039496
:101600003046FEF77DFF07B0F0BD0000004002400D
:10161000001002400004005010B5040003D0A06F79
:10162000002802D007E0012010BD002174200155E0
:10163000204600F027F82420A067206801684908A8
:1016400049000160204600F08DFA0128ECD0606A64
:10165000002802D0204600F0EDF9206841680922F8
:10166000D20291434160206881682A2291438160BF
:1016700020680168012211430160204600F040FA11
:1016800010BD000010B586B0044614216846FEF770
:1016900040FE1149206888421CD11048416B01224C
:1016A000920311434163C16A01221143C162C06ABE
:1016B00069461040059003204002009002200190EE
:1016C00000200290032003900420049005200007CE
:1016D000FEF716FF06B010BD0038014000100240B2
:1016E000FEE70000F0B587B014216846FEF711FE52
:1016F0002A48C26A04210A43C262C26A0A400592A9
:10170000C26A80210A43C262C26A0A400592C16A63
:1017100001252943C162C16A29400591C26A02219B
:101720000A43C262C06A1E4F08400C0305900022A3
:1017300021463846FEF7BCFF052000222021000785
:10174000FEF7B6FF174E002231461748FEF7B0FFEE
:101750000094002401950294694638460394FEF7EC
:10176000CFFEFF2004300090019469460294B00639
:10177000FEF7C6FE2020009002946946019503946E
:10178000B006FEF7BDFE0294694607480096019533
:101790000394FEF7B5FE07B0F0BD00000010024054
:1017A00000080050140C00000004005010B513484D
:1017B000114901601249416000218160016141616C
:1017C00081610122C161C2600162FEF7C7FF00288A
:1017D00001D072B6FEE700210848FEF775FF002829
:1017E00001D072B6FEE700210448FEF792FF002800
:1017F00001D072B6FEE710BD00540040100000207A
:10180000BB7C700010B50E480C490160FF2105310A
:1018100041600121C90381600021C1600161416112
:101820008161C1610162416281620721C162FFF78A
:1018300028FD002801D072B6FEE710BD003001403F
:101840005C00002010B50D480B490160FF210531F7
:10185000416000218160C160016141618161C161BC
:101860000162416281620721C162FFF70AFD00281F
:1018700001D072B6FEE710BD00380040B400002071
:1018800010B5134811490160012109074160091190
:101890008160002101730122026141615203826172
:1018A0000162A0224162C26102468162203211734C
:1018B000912292000263416351008163FFF702FEAF
:1018C000002801D072B6FEE710BD000000400240C3
:1018D0004C01002010B50C480A490160E121490281
:1018E000416000218160C16001618161C1610C22A0
:1018F000016242614162FFF78FFE002801D072B69B
:10190000FEE710BD0038014090010020FEE770475F
:10191000704710B5FEF7ACFF10BD000010B59CB0CD
:1019200038216846FEF7F5FC142117A8FEF7F1FCF4
:1019300024210EA8FEF7EDFC1D4801680322D20207
:101940009143C21489180160212001210090069161
:10195000500101900B9000010C90C00002210D90ED
:101960000A916846FFF746FA002801D072B6FEE7F2
:101970000F20179000240320189019941A94012125
:101980001B9417A8FFF70CF9002801D072B6FEE7E8
:1019900049200E90012011948006169014940EA8F0
:1019A000FFF732F8002801D072B6FEE71CB010BD78
:1019B000007000407047000070B5026801239B076B
:1019C000114C124D984203D0A04201D0A84203D13D
:1019D0007026B2434E683243984203D0A04201D0F1
:1019E000A84204D103231B029A43CB681A438023E5
:1019F0009A430B691A4302608A68C262096881626D
:101A00000121416170BD0000000801400014014047
:101A100070B5044600200F25014601238E002A469A
:101A2000B240224202D01A468A401043491C08297B
:101A3000F4D370BD10B5818CC90707D001684A681E
:101A400001235B049A43836A1A434A60818C8907A5
:101A500007D501684A6801231B049A43C36A1A43E5
:101A60004A60818C490707D501684A6801239B04B5
:101A70009A43036B1A434A60818C090707D50168B2
:101A80004A680123DB039A43436B1A434A60818C03
:101A9000C90607D50268916801231B039943836B2C
:101AA00019439160818C890607D501688A680123F2
:101AB0005B039A43C36B1A438A60818C490612D533
:101AC00003685A6801210905046C8A4322435A605D
:101AD000026C8A4207D10268516803235B0599436F
:101AE000436C19435160818C090607D501684A6827
:101AF0000123DB04806C9A4302434A6010BD00005E
:101B0000F8B50446002680300660FEF7D7FD05468E
:101B100020680068124F000709D501212B460022DA
:101B200049052046009700F01DF900280DD12068D6
:101B3000006840070BD501212B460022890520466D
:101B4000009700F00FF9002801D00320F8BD2020F5
:101B5000A067E0672666603426750020F8BD0000A7
:101B6000FFFFFF01F8B50446016880682369E66954
:101B700018436369002533431843724A0B68724E59
:101B8000334003430B602168486803231B039843D9
:101B9000E368184348602168A069914201D0236A34
:101BA00018438B680B263602B34303438B606749A7
:101BB000236867488B420CD1C0688007800F06D02D
:101BC000012839D0022835D0032821D11EE0012771
:101BD0001FE060498B420AD1C0680C21084027D021
:101BE000042829D0082825D00C2811D10EE09342D2
:101BF0000ED1C16803208002014019D0012080026B
:101C0000091A19D0091A15D0814201D1082700E01C
:101C100010274F49504840398600934232D1002F57
:101C20000CD0022F0DD0042F10D0082F7FD126E02A
:101C30000027EEE70227ECE70427EAE7FFF77EF844
:101C400006E00968C90605D4304603E0FFF796F8B8
:101C5000002872D0626851005118814267D8110380
:101C6000814264D3010E0602500800233018594106
:101C7000FEF7B0FA03210902411A384A55E0012063
:101C8000C003E7E70122E369D20393422BD13B0073
:101C900000F0FEF80906090C4D114D4D4D274D0081
:101CA000FFF74CF809E0FFF759F806E00968C906A4
:101CB00005D4304603E0FFF761F800283DD06168A5
:101CC00040004A088018FEF726FB80B20146244AED
:101CD000103991422BD8511C01400007400F084396
:101CE00029E01046EBE73B0000F0D2F80906090CAA
:101CF0002112212121232100FFF720F80AE0FFF71C
:101D00002DF807E00968C90606D4304604E00EE065
:101D1000FFF734F8002810D061684A081018FEF761
:101D2000FAFA80B201460E4A1039914203D90125D0
:101D300003E01046F0E72168C86000206066A066F6
:101D40002846F8BD00480040F369FFEF0038014025
:101D5000401002400044004000093D00FFFC0F001D
:101D6000EFFF0000FFB581B0054617460446603519
:101D70000A9E55E0701C53D0FEF7A0FC0499401A4F
:101D8000B04230D8002E2ED020680168490747D5D0
:101D9000C069C043000543D401202168C002086225
:101DA000EFF31080012181F3108821680B68FF2276
:101DB000A13293430B6080F31088EFF31080012170
:101DC00081F3108821688A68520852008A6080F383
:101DD00010882020A067E0678034206000202875EC
:101DE000032005B0F0BDEFF31080012181F31088CE
:101DF00021680B68FF22A13293430B6080F31088A7
:101E0000EFF31080012181F3108821688A6852085D
:101E100052008A6080F310882020A067E067DDE729
:101E20002068C1690298884304D00020B842A1D03C
:101E30000020D6E70120F9E7012140300180002190
:101E400001808180018208467047000040300349CC
:101E500002888A43028000207047000080BF000093
:101E6000F8B5040C8BB2264682B25E430D0C1046C8
:101E7000370C5843360480190021794116466E43C9
:101E8000370C36048019794126466E438919F8BD0E
:101E900030B47446641E2578641CAB4200D21D46E3
:101EA000635D5B00E31830BC184700008307FF2226
:101EB000DB0E9A408907090E9940002808DB830849
:101EC00009489B001B181868904308431860704726
:101ED0000007000F0838830804489B001B18D869C6
:101EE00090430843D861704700E400E000ED00E053
:101EF0001CB5FEF7C5FCFFF711FDFFF7F3FBFFF77D
:101F000055FCFFF77FFCFFF79DFCFFF7B9FCFFF7DF
:101F1000E1FC20481E4901600821416002218160E6
:101F200000248461C46104620161FEF705FD00289C
:101F300001D072B6FEE7184918480094019412C007
:101F40007D210460C900C46041600838FFF78CFA45
:101F5000002801D072B6FEE7009469460F4801944C
:101F6000FFF756FA002801D072B6FEE705240C4DA3
:101F70002407012220212046FEF79AFB002210218F
:101F80002846FEF795FB6420FEF7A8FAF1E700006B
:101F9000005C004014020020001000400C010020F2
:101FA00000040050000000000000000001020304D3
:101FB00006070809030406080C101820300000006A
:101FC0000001020304000000E81F000800000020D8
:101FD0001000000004010008F81F00081000002095
:101FE000580B000020010008010000000400000060
:081FF0000000000000002000C9
:04000005080000C12E
:00000001FF
